{
  "contractName": "calculator",
  "abi": [
    {
      "anonymous": false,
      "inputs": [
        {
          "indexed": false,
          "internalType": "string",
          "name": "msg",
          "type": "string"
        }
      ],
      "name": "success",
      "type": "event"
    },
    {
      "inputs": [],
      "name": "result",
      "outputs": [
        {
          "internalType": "uint256",
          "name": "",
          "type": "uint256"
        }
      ],
      "stateMutability": "view",
      "type": "function",
      "constant": true
    },
    {
      "inputs": [
        {
          "internalType": "uint256",
          "name": "nums1",
          "type": "uint256"
        },
        {
          "internalType": "uint256",
          "name": "nums2",
          "type": "uint256"
        }
      ],
      "name": "addNum",
      "outputs": [
        {
          "internalType": "uint256",
          "name": "",
          "type": "uint256"
        }
      ],
      "stateMutability": "pure",
      "type": "function",
      "constant": true
    },
    {
      "inputs": [
        {
          "internalType": "uint256",
          "name": "nums1",
          "type": "uint256"
        },
        {
          "internalType": "uint256",
          "name": "nums2",
          "type": "uint256"
        }
      ],
      "name": "subNum",
      "outputs": [
        {
          "internalType": "uint256",
          "name": "",
          "type": "uint256"
        }
      ],
      "stateMutability": "pure",
      "type": "function",
      "constant": true
    },
    {
      "inputs": [
        {
          "internalType": "uint256",
          "name": "nums1",
          "type": "uint256"
        },
        {
          "internalType": "uint256",
          "name": "nums2",
          "type": "uint256"
        }
      ],
      "name": "multiNum",
      "outputs": [
        {
          "internalType": "uint256",
          "name": "",
          "type": "uint256"
        }
      ],
      "stateMutability": "nonpayable",
      "type": "function"
    },
    {
      "inputs": [
        {
          "internalType": "uint256",
          "name": "nums1",
          "type": "uint256"
        },
        {
          "internalType": "uint256",
          "name": "nums2",
          "type": "uint256"
        }
      ],
      "name": "divNum",
      "outputs": [
        {
          "internalType": "uint256",
          "name": "",
          "type": "uint256"
        }
      ],
      "stateMutability": "pure",
      "type": "function",
      "constant": true
    }
  ],
  "bytecode": "0x608060405234801561001057600080fd5b50610565806100206000396000f3fe608060405234801561001057600080fd5b50600436106100575760003560e01c8063653721471461005c5780636f827c3e1461007a5780637eaddeaa146100aa578063c5c3d064146100da578063e4ada89c1461010a575b600080fd5b61006461013a565b6040516100719190610235565b60405180910390f35b610094600480360381019061008f9190610281565b610140565b6040516100a19190610235565b60405180910390f35b6100c460048036038101906100bf9190610281565b610156565b6040516100d19190610235565b60405180910390f35b6100f460048036038101906100ef9190610281565b6101f0565b6040516101019190610235565b60405180910390f35b610124600480360381019061011f9190610281565b610206565b6040516101319190610235565b60405180910390f35b60005481565b6000818361014e91906102f0565b905092915050565b600080821161019a576040517f08c379a0000000000000000000000000000000000000000000000000000000008152600401610191906103a7565b60405180910390fd5b8183116101dc576040517f08c379a00000000000000000000000000000000000000000000000000000000081526004016101d390610439565b60405180910390fd5b81836101e89190610488565b905092915050565b600081836101fe91906104b9565b905092915050565b6000818361021491906104fb565b905092915050565b6000819050919050565b61022f8161021c565b82525050565b600060208201905061024a6000830184610226565b92915050565b600080fd5b61025e8161021c565b811461026957600080fd5b50565b60008135905061027b81610255565b92915050565b6000806040838503121561029857610297610250565b5b60006102a68582860161026c565b92505060206102b78582860161026c565b9150509250929050565b7f4e487b7100000000000000000000000000000000000000000000000000000000600052601160045260246000fd5b60006102fb8261021c565b91506103068361021c565b925082820390508181111561031e5761031d6102c1565b5b92915050565b600082825260208201905092915050565b7f64697669736f722063616e6e6f74206265207a65726f206f72206e656769746960008201527f7665000000000000000000000000000000000000000000000000000000000000602082015250565b6000610391602283610324565b915061039c82610335565b604082019050919050565b600060208201905081810360008301526103c081610384565b9050919050565b7f6469766964656e74206d7573742062652067726561746572207468616e20646960008201527f7669736f72000000000000000000000000000000000000000000000000000000602082015250565b6000610423602583610324565b915061042e826103c7565b604082019050919050565b6000602082019050818103600083015261045281610416565b9050919050565b7f4e487b7100000000000000000000000000000000000000000000000000000000600052601260045260246000fd5b60006104938261021c565b915061049e8361021c565b9250826104ae576104ad610459565b5b828204905092915050565b60006104c48261021c565b91506104cf8361021c565b92508282026104dd8161021c565b915082820484148315176104f4576104f36102c1565b5b5092915050565b60006105068261021c565b91506105118361021c565b9250828201905080821115610529576105286102c1565b5b9291505056fea2646970667358221220d88ee287ebf1fdcd33958947c4130ac3b8e2705781644ef994b11532ec91202364736f6c63430008110033",
  "immutableReferences": {},
  "source": "// SPDX-License-Identifier: MIT\r\npragma solidity ^0.8.0;\r\n\r\ncontract calculator {\r\n\r\n    uint public result;\r\n    event success(string msg);\r\n    function addNum(uint  nums1,uint nums2) public pure returns(uint){\r\n        return nums1+nums2;\r\n    }\r\n    function subNum(uint nums1,uint nums2) public pure returns(uint){\r\n        return nums1-nums2;\r\n    }\r\n    function multiNum(uint nums1, uint nums2) public returns(uint){\r\n        return nums1*nums2;\r\n        emit success(\"multiplication success!\");\r\n    }\r\n    function divNum(uint nums1, uint nums2) public pure returns(uint){\r\n        require(nums2>0, \"divisor cannot be zero or negitive\");\r\n        require(nums1>nums2, \"divident must be greater than divisor\");\r\n        return nums1/nums2;\r\n    }\r\n\r\n}",
  "sourcePath": "D:\\project\\block-chain\\test_project\\contracts\\calculator.sol",
  "compiler": {
    "name": "solc",
    "version": "0.8.17+commit.8df45f5f.Emscripten.clang"
  },
  "schemaVersion": "3.4.11",
  "updatedAt": "2023-01-21T07:28:27.010Z",
  "networkType": "ethereum",
  "devdoc": {
    "kind": "dev",
    "methods": {},
    "version": 1
  },
  "userdoc": {
    "kind": "user",
    "methods": {},
    "version": 1
  }
}